:020000040000FA
:100000001807001069010000710100007301000071
:100010007501000077010000790100000000000078
:100020000000000000000000000000007B01000054
:100030007D010000000000007F0100008101000040
:1000400083010000830100008301000083010000A0
:10005000830100009D1600004D1700008301000081
:100060008301000083010000830100008301000080
:100070008301000083010000830100008301000070
:100080008301000083010000830100008301000060
:100090008301000083010000830100008301000050
:1000A0008301000083010000830100008301000040
:1000B0008301000083010000830100008301000030
:1000C00083010000830100008301000000F002F8BA
:1000D00000F03AF80AA090E8000C82448344AAF1A8
:1000E0000107DA4501D100F02FF8AFF2090EBAE8A6
:1000F0000F0013F0010F18BFFB1A43F0010318475C
:100100001427000034270000103A24BF78C878C1B3
:10011000FAD8520724BF30C830C144BF04680C600D
:10012000704700000023002400250026103A28BF55
:1001300078C1FBD8520728BF30C148BF0B60704759
:100140001FB51FBD10B510BD01F026FE1146FFF70B
:10015000F7FF00F027F801F044FE03B4FFF7F2FFC9
:1001600003BC01F049FE00000948804709480047E8
:10017000FEE7FEE7FEE7FEE7FEE7FEE7FEE7FEE757
:10018000FEE7FEE704480549034A054B70470000B7
:10019000A9040000CD000000180500101807001089
:1001A0001805001000F080F900F0AAF80A2000F00D
:1001B00065F801F07CF801F031F900F086FC00F000
:1001C0009FFE00F04EFB4FF47A7001F095F84FF46B
:1001D0006141012001F022FB01F009FC124800F00E
:1001E000E3F91248006840F00F001149C1F880019E
:1001F00001F03CF917E000F054F80E4880680E4911
:1002000088420CD301F040F9022001F08CF90B492F
:1002100008600846006801F0E5F90949088001F026
:100220006DFC00F03FFEE6E7801A060080C10F403B
:1002300000C00F400000094090D003007000001083
:10024000880000100B48406820F4401009494860BD
:100250000846406840F400104860002006490860E5
:100260007047811201D040F2FF308101024A1160D3
:100270007047000000C0024000C0084000214FF05D
:10028000804211611146096941F00041116108493C
:100290004143516003211170AA211172552111723D
:1002A0007047AA2041070872552008727047000065
:1002B00040420F0010B5431C02E010F8011B71B161
:1002C0008107FAD14FF0013202C88C1A8C4314EA2C
:1002D000C211F9D0C01A0A0603D0C01E10BDC01A40
:1002E00010BD0A0401D0801E10BD0902FCD0401EC2
:1002F00010BD70477047704770470000FFFFFFFF59
:100300002DE9F04799480068C0F3016003287CD1CB
:100310009748006810F0030006D0012833D0022867
:100320005FD003282ED100E000BF90480068C0F3E2
:10033000074000F101044FF002018E48D0F8880018
:10034000C0F30E0000F10100A1FB00018A4B4FF049
:10035000000CA0FB037901FB039100FB0C1122466A
:100360006346384601F058FC054684480068C0B230
:1003700000F1010422464FF00003284601F04CFC36
:100380007F4908605DE079480068C0F3074000F1EC
:1003900001044FF002017748D0F88800C0F30E0046
:1003A00000F10100A1FB0010764A4FF0000CA1FB08
:1003B000027900FB029001FB0C012246634638469D
:1003C00001F02AFC05466D480068C0B200F1010446
:1003D00022464FF00003284601F01EFC68490860E1
:1003E0002FE062480068C0F3074000F101044FF0BD
:1003F00002016048D0F88800C0F30E0000F101004F
:10040000A1FB00124FF4004000E01BE04FF000039E
:10041000A1FB007902FB009001FB03012246384654
:1004200001F0FAFB054655480068C0B200F101042E
:1004300022464FF00003284601F0EEFB50490860C9
:1004400000BF2FE04A48006810F0030006D00128E2
:1004500010D0022819D0032823D100E000BF47485C
:100460000068C0B200F101004349B1FBF0F044491B
:10047000086016E041480068C0B200F1010041493F
:10048000B1FBF0F03E4908600BE03C480068C0B2A8
:1004900000F101004FF40041B1FBF0F03849086071
:1004A00000BF00BFBDE8F087202037490860314811
:1004B000D0F8A00110F0200F05D000BF324800682E
:1004C00010F0400FFAD003202C4908604FF00000D4
:1004D0002849C1F8A8012D4908604FF001002449BE
:1004E00008602B482B4908604FF0AA002A49086091
:1004F0004FF0550008604FF00100284908604FF0A8
:10050000AA00254908604FF055001A49C1F88C002F
:1005100000BF1648006810F0806FFAD003201F4912
:1005200008604FF0AA001349C1F88C004FF0550045
:100530001949086000BF0D48006800F04070B0F134
:10054000407FF8D100201649086016480949C1F8D3
:10055000C4004FF00000C1F8C8010846006820F44C
:10056000704040F4804008607047000088C00F4031
:100570000CC10F4000C00F4000093D0004C10F40F6
:1005800000000010002D3101A0C10F40ACC10F4090
:100590003F00050084C00F408CC00F4080C00F405A
:1005A00008C10F405E93C1002D49096841F4805194
:1005B0002C4AC2F8C4102C49496821F470212A4AF7
:1005C00051601146496841F4A02151601146496CBF
:1005D00021F4702151641146496C41F42021516489
:1005E000224909684FEA9101B1FBF0F1A1F1010143
:1005F0004FF0040242EA012141F400111C4A11604B
:100600004FF00001D160704710B50246082A00DBA8
:1006100000221748006820F0FF00154C206020469B
:1006200000680124944044F080742043104C206002
:1006300005E00F48416811F0004F00D000E0F8E7F6
:1006400000BF0B48006820F0E060094C206011F00A
:10065000804F01D0002010BDC1F30B131846FAE7FC
:10066000C4C00F4000C00F4000C002400000001096
:100670000040034010B504460021204600F088FCED
:1006800018B1162000F0D4FC02E0162000F018FD8E
:100690000121204600F07CFC18B14B2000F0C8FC82
:1006A00002E04B2000F00CFD0221204600F070FC1F
:1006B00018B14C2000F0BCFC02E04C2000F000FD22
:1006C0000321204600F064FC18B14D2000F0B0FC7E
:1006D00002E04D2000F0F4FC10BD10B50024142001
:1006E00000F0EEFC132000F0A3FC4D2000F086FD8E
:1006F0000A2000F0EBFD4FF4FA6414E0152000F03E
:1007000097FC012000F0E2FD4D2000F053FC18B9E9
:10071000152000F0D5FC08E0152000F0D1FC0A20DF
:1007200000F0D4FD641E002CE8DC00BF142000F0B3
:100730007FFC132000F0C4FC4D2000F017FD4D207D
:1007400000F0BEFC10BD10B50446152000F070FC92
:100750002009FFF78FFF152000F0B2FC0A2000F0FF
:10076000B5FD152000F064FC04F00F00FFF782FFD8
:10077000152000F0A5FCFE48007810B1FFF7ADFF92
:1007800003E04FF42F7000F0A1FD10BD10B504463A
:10079000142000F095FC132000F092FC0A2000F0D9
:1007A00095FD2046FFF7CFFF10BD10B5044614207D
:1007B00000F03EFC132000F083FC0120EC4908709F
:1007C0000A2000F083FD2046FFF7BDFF10BD70B585
:1007D0000546002404E0285DFFF7E7FF601CC4B273
:1007E000142C02DA285D0028F5D170BDE14A1170A1
:1007F000E14A107070470146DE480078401E00EB69
:100800008000DE4A02EB8002DB480078401E115473
:10081000D9480078142290FBF2F302FB1300401C2D
:10082000D54A10701046007801280AD1D14A1078B4
:10083000C21700EB92729210A0EB8202521CCD4BB9
:100840001A70704730B50546002404E0285DFFF7B4
:10085000D2FF601CC4B2142C02DA285D0028F5D146
:1008600030BD70B50025002413E0C54A105DFFF7C8
:100870008DFF002509E004EB8401C04A02EB8101F1
:10088000485DFFF792FF681CC5B2142DF3DB601CB6
:10089000C4B2042CE9DB0C20FFF778FF70BD10B563
:1008A0000024152000F0C4FB012000F00FFD4D20B6
:1008B00000F080FB44EAC010C4B24C2000F07AFB88
:1008C00044EA8010C4B24B2000F074FB44EA4010AC
:1008D000C4B2162000F06EFB44EA0010C4B215202A
:1008E00000F0EEFB0A2000F0F1FC152000F0A0FB68
:1008F000012000F0EBFC4D2000F05CFB44EAC0005E
:10090000C4B24C2000F056FB44EA8000C4B24B2035
:1009100000F050FB44EA4000C4B2162000F04AFB4D
:100920000443152000F0CCFB642000F0CFFC2046EF
:1009300010BD10B50024142000F07AFB132000F045
:1009400077FB0A2000F0C2FC162000F057FC4B2079
:1009500000F054FC4C2000F051FC4D2000F04EFC07
:100960000A2000F0B3FCFFF79AFF0446132000F0C2
:10097000A7FB162000F0FAFB4B2000F0F7FB4C2001
:1009800000F0F4FB4D2000F0F1FB204610BD10B547
:1009900000207C49087052E07A490978784A505C16
:1009A000FFF7F4FE142000F043FB132000F040FB9F
:1009B000162000F023FC4B2000F020FC4C2000F01F
:1009C0001DFC4D2000F01AFC0A2000F07FFC0020E6
:1009D0006D49087015E0FFF762FF6A49097801EB7D
:1009E0008101664A02EB8101674A1278895C88427C
:1009F00002D016206449087063480078401C6249A0
:100A00000870614800781428E5DB132000F058FBDB
:100A1000162000F0ABFB4B2000F0A8FB4C2000F0B0
:100A2000A5FB4D2000F0A2FB57480078142801DDFB
:100A3000002010BD53480078401C524908705148AE
:100A400000780428A8DB0120F3E770B50025002416
:100A500038E0601CC1B20120FFF7C8FE142000F08E
:100A6000E7FA132000F0E4FA162000F0C7FB4B2051
:100A700000F0C4FB4C2000F0C1FB4D2000F0BEFB99
:100A80000A2000F023FC002509E0FFF708FF04EB33
:100A900084013A4A02EB81014855681CC5B2142D05
:100AA000F3DB132000F00CFB162000F05FFB4B2063
:100AB00000F05CFB4C2000F059FB4D2000F056FB91
:100AC000601CC4B2042CC4DB70BD1FB52FA103C9C8
:100AD000CDE902012FA103C9CDE90001162000F0E4
:100AE00045FB4B2000F042FB4C2000F03FFB4D202B
:100AF00000F03CFB152000F039FB142000F036FB21
:100B0000132000F033FB162000F0DAFA4B2000F03F
:100B1000D7FA4C2000F0D4FA4D2000F0D1FA15207D
:100B200000F0CEFA142000F0CBFA132000F0C8FA3F
:100B3000142000F0C5FA152000F0C2FA0F2000F0D2
:100B4000DBFB00200A4908703020FFF7FCFD052080
:100B500000F0D2FB3020FFF7F6FD642000F0B6FB7A
:100B60003020FFF7F0FD052000F0C6FB152015E052
:100B70000400001055000010560000100500001081
:100B8000602600005700001058000010040E1F00DF
:100B9000001F0E040C12120C0000000000F048FAB6
:100BA0000220FFF767FD152000F08AFA012000F00F
:100BB000A3FB282000F08AFB2820FFF7C4FD282093
:100BC00000F084FB0E20FFF7BEFD282000F07EFB26
:100BD0000120FFF7B8FD022000F08EFB0620FFF792
:100BE000B2FD022000F088FB4020FFF7ACFD0220A0
:100BF00000F082FB0020CB4908600AE002A9C94A44
:100C00001268885CFFF7D1FDC6480068401CC549E2
:100C10000860C44800680828F0D30020C149086073
:100C20000AE0C04A12681DF80200FFF7BEFDBD4889
:100C30000068401CBB490860BA4800680828F0D327
:100C40001FBDF0B505460E4614460A2095FBF0F090
:100C50003030C7B23846FFF7CEFD0A2095FBF0F1E1
:100C600000FB11503030C7B23846FFF7C4FD2F20CB
:100C7000FFF7C1FD0A2096FBF0F03030C7B23846CE
:100C8000FFF7B9FD0A2096FBF0F100FB1160303050
:100C9000C7B23846FFF7AFFD2F20FFF7ACFD4FF48A
:100CA0007A7094FBF0F03030C7B23846FFF7A3FDFE
:100CB0004FF47A7094FBF0F000EB4001C1EBC010F0
:100CC000A4EBC004642094FBF0F03030C7B2384687
:100CD000FFF791FD642094FBF0F000EBC00101EB05
:100CE0000010A4EB80040A2094FBF0F03030C7B26F
:100CF0003846FFF780FD0A2094FBF0F000EB8000FF
:100D0000A4EB400404F13001C8B2FFF774FDF0BD5C
:100D1000F0B505460C4617460A2095FBF0F030303A
:100D2000C6B23046FFF767FD0A2095FBF0F100FBE5
:100D300011503030C6B23046FFF75DFD3A20FFF764
:100D40005AFD0A2094FBF0F03030C6B23046FFF76F
:100D500052FD0A2094FBF0F100FB11403030C6B286
:100D60003046FFF748FD3A20FFF745FD0A2094FB87
:100D7000F0F03030C6B23046FFF73DFD0A2094FB5C
:100D8000F0F100FB11403030C6B23046FFF733FDC2
:100D9000F0BD00B502E02020FFF72DFD624800788D
:100DA0000128F8D100BD0021002007E0002101E06A
:100DB0004A1CD1B21429FBDB421CD0B20428F5DB5B
:100DC0007047F0B505460E4600242C46052E17DB6D
:100DD00042F21070854207DB94FBF0F03030C7B26E
:100DE0003846FFF708FD02E02020FFF704FD42F23D
:100DF000107094FBF0F040F271214843A4EB001412
:100E0000042E19DBB5F57A7F09DB4FF47A7094FB79
:100E1000F0F03030C7B23846FFF7EDFC02E020209A
:100E2000FFF7E9FC4FF47A7094FBF0F000EB40011F
:100E3000C1EBC010A4EBC004032E16DB642D08DB4D
:100E4000642094FBF0F03030C7B23846FFF7D3FC93
:100E500002E02020FFF7CFFC642094FBF0F000EBD1
:100E6000C00101EB0010A4EB8004022E14DB0A2D5C
:100E700008DB0A2094FBF0F03030C7B23846FFF7A9
:100E8000BAFC02E02020FFF7B6FC0A2094FBF0F049
:100E900000EB8000A4EB400404F13001C8B2FFF77E
:100EA000AAFCF0BD10B502210120FFF79FFCFFF75F
:100EB00070FF1EA0FFF7C6FC03211E48B0F900001A
:100EC000FFF77FFF1CA0FFF7BDFC2820FFF793FC76
:100ED00005211B480068FFF774FF2920FFF78BFCF2
:100EE00002E02020FFF787FC164800780128F8D19F
:100EF0000D4800780128F4D10C20FFF747FC10BD05
:100F000000B501210846FFF771FC0FA0FFF79AFC1E
:100F100013A0FFF797FC18A0FFF794FC0AA0FFF7B7
:100F200091FC00BD8C000010560000104E48333A72
:100F3000000000008800001070706D2000000000AC
:100F400070000010550000102020202020202020BC
:100F50002020202020202020202020200000000011
:100F60002020414C54454D205465636E6F6C6F6773
:100F7000696120200000000020207777772E616CC7
:100F800074656D2E636F6D2E62722020000000006C
:100F9000024642FA01F000F00100704701238B4045
:100FA00002681A430260704701238B4002689A432B
:100FB000026070470146481107D1F948406901F0C5
:100FC0001F02D04000F0010070470120B0EB611F0C
:100FD00007D1F348406B01F01F02D04000F0010040
:100FE000F2E70220B0EB611F07D1ED48406D01F040
:100FF0001F02D04000F00100E6E70320B0EB611FC4
:1010000007D1E748406F01F01F02D04000F0010017
:10101000DAE70420B0EB611F08D1E248006801F074
:101020001F0220FA02F000F00100CDE70020CBE71C
:10103000411109D1DA49896900F01F0301229A4060
:101040001143D74A91613AE00121B1EB601F09D108
:10105000D349896B00F01F0301229A401143D04A03
:1010600091632CE00221B1EB601F09D1CC49896D5D
:1010700000F01F0301229A401143C94A91651EE006
:101080000321B1EB601F09D1C549896F00F01F032F
:1010900001229A401143C24A916710E00421B1EB4A
:1010A000601F0CD1C049096800F01F034FF0010216
:1010B00002FA03F241EA0201B94AC2F898107047F5
:1010C000411109D1B649C96900F01F0301229A40B4
:1010D0001143B34AD1613AE00121B1EB601F09D15C
:1010E000AF49C96B00F01F0301229A401143AC4A7B
:1010F000D1632CE00221B1EB601F09D1A849C96D71
:1011000000F01F0301229A401143A54AD1651EE059
:101110000321B1EB601F09D1A149C96F00F01F0382
:1011200001229A4011439E4AD16710E00421B1EB9D
:10113000601F0CD19D49096800F01F034FF00102A8
:1011400002FA03F241EA0201954AC2F89C10704784
:1011500010B504462046FFF72DFF18B12046FFF7D3
:10116000AFFF02E02046FFF763FF10BD411109D138
:101170008B49096800F01F0301229A401143884AF5
:1011800011603AE00121B1EB601F09D18449096A7D
:1011900000F01F0301229A401143814A11622CE0A2
:1011A0000221B1EB601F09D17D49096C00F01F03DA
:1011B00001229A4011437A4A11641EE00321B1EBE7
:1011C000601F09D17649096E00F01F0301229A4081
:1011D0001143734A116610E00421B1EB601F0CD17A
:1011E0007349096800F01F034FF0010202FA03F28D
:1011F00041EA02016A4AC2F880107047411109D1E0
:101200006749096800F01F0301229A409143644A2C
:1012100011603AE00121B1EB601F09D16049096A10
:1012200000F01F0301229A4091435D4A11622CE0B5
:101230000221B1EB601F09D15949096C00F01F036D
:1012400001229A409143564A11641EE00321B1EBFA
:10125000601F09D15249096E00F01F0301229A4014
:1012600091434F4A116610E00421B1EB601F0CD18D
:101270004F49096800F01F034FF0010202FA03F220
:1012800021EA0201464AC2F88010704702204FF05E
:10129000402148604748006880084749B0FBF1F0AA
:1012A000401E4FF04021C860042048617047434809
:1012B000006820F008004249C1F8A8010846D0F8AB
:1012C000A80140F00400C1F8A801704702214FF0C6
:1012D000402251606321D16011468861FF21116075
:1012E000042151610121516000BF4FF04021496844
:1012F00011F0010FF9D1704710B5034600241C46C8
:1013000004E04FF47A70FFF7E1FF641E002CF8DC74
:1013100010BD284800688008642148434FF47A7162
:10132000B0FBF1F0274908600846007A40F002005F
:1013300008720846007A20F00800087270472148B9
:10134000007A40F008001F4908721D2001218140E9
:1013500042094FF0E02303EB8202C2F8001100BF04
:1013600070471948006840F400401549C1F8C400AE
:1013700070470246154850F82200406901238B400F
:10138000184201D0012070470020FCE710B532B1AF
:1013900001238B400D4C54F82040A36110BD17E091
:1013A00000C0092094C0092098C009209CC00920D1
:1013B00080C009200000001040420F00A8C10F406B
:1013C00000C00F4000000B40C4C00F406426000066
:1013D00001238B40104C54F82040E36100BF10BD46
:1013E00010B55AB10C4B53F820301B6801248C40C7
:1013F0002343094C54F82040236010BD064B53F89A
:1014000020301B6801248C40A343034C54F8204037
:10141000236000BFF1E700006426000010B5002043
:101420008D4908601DE08D498B4A1268885CFFF782
:101430009DFE8B48C06E8949874A1268895C01F01D
:101440001F020121914008438549C8668349824AA9
:101450001268885CFFF7ECFD7F480068401C7E49FD
:1014600008607D4800680228DDD310BD7D48006813
:1014700080087D49B0FBF1F0401E7C49C860022025
:10148000486001204860704710B500BF7748806809
:1014900077498842FAD3FFF7E9FF70494878FFF7A8
:1014A0000FFE00BF71488068B0F5FA6FFAD36B4940
:1014B0000878FFF705FE00BF6C48806841F2707144
:1014C0008842F9D30220FFF79FF86A49086001209B
:1014D000FFF79AF8684908600220FFF795F8654918
:1014E00009680844634908600120FFF78DF86249E4
:1014F000096808446049086000BF5C48806841F69C
:1015000058318842F9D355490878FFF791FD00BF5B
:101510005648806843F2B0618842F9D34F49487811
:10152000FFF786FD10BD2DE9F047044651490968D3
:10153000514A1268881A01D4014600E04142B1F5CF
:10154000C87F48DD012C0ED14B48006842F2107173
:10155000484348490968484A1268891A90FBF1F0E3
:10156000464908603AE0022C38D14348006800F050
:1015700078FE05464FF06042414B00F089FE414A3B
:1015800003C23D48006800F06CFE074600223E4B57
:1015900000F07EFE05460E4636490968364A126856
:1015A000881A00F05EFE07460022384B00F070FEFD
:1015B00081462A46334600F069FF354A03C2344863
:1015C00030490CC803C900F0C5FC054600F01AFEFE
:1015D0002A49086002E02F48284908602748006827
:1015E000BDE8F08730B502462B480068904201DA2A
:1015F000002030BD002119E0274D01F1010455F80C
:101600002440A2EB04002C4654F82140131B01D4C3
:101610001C4600E05C42002801DB054600E0454234
:10162000AC4201DA0846E4E7481CC1B26529E3DBB5
:101630006520DEE770B50446642C00DD6424C4EB4D
:10164000441000EB0010642190FBF1F000F2D11582
:101650002846FEF706FE70BD8C0000101028000022
:1016600000C002400000001040420F00000009408E
:1016700090D0030064000010680000106C0000109F
:10168000A80E0D42780000100088C340C0CD37413D
:1016900080000010905F01007826000030B500BF88
:1016A000BE4B9B68D8B2401000F0070003281FD142
:1016B000BA4B197D11F09E0F04D0B94B1960B74B8E
:1016C0001A7830BD11F0010F3ED0B44B1B78B54CE9
:1016D000B54D2D686355B44B1B685B1CB24C236041
:1016E00023461B68B3F5007F2ED1002323602BE037
:1016F000022812D1A94B1C78AA4BAB4D2D685C5522
:10170000A94B1B685B1CA84C236023461B68B3F5E0
:10171000007F19D10023236016E0062806D1A04BD4
:101720001B6843F480739E4C23600DE001280BD1AD
:101730009A4B197D11F0200F03D001239B4C23708D
:1017400002E00023994C237000BFBAE730B500BF18
:10175000974B9B68D8B2401000F0070003281FD1B8
:10176000934B197D11F09E0F04D0924B1960904B52
:101770001A7830BD11F0010F3ED08D4B1B788E4C86
:101780008E4D2D6863558D4B1B685B1C8B4C236005
:1017900023461B68B3F5007F2ED1002323602BE086
:1017A000022812D1824B1C78834B844D2D685C55E6
:1017B000824B1B685B1C814C236023461B68B3F57E
:1017C000007F19D10023236016E0062806D1794B4B
:1017D0001B6843F48073774C23600DE001280BD124
:1017E000734B197D11F0200F03D00123744C23702B
:1017F00002E00023724C23706F4B1B78714C2478ED
:10180000A34202D06C4B1B781BB96C4B1B68042B9A
:1018100002D90023694C236000BFAAE72DE9F041FB
:1018200007468846002F3CD16748006820F0F0004A
:10183000654908600846006840F050000860634849
:101840000068C0F3811636B1012E08D0022E09D0EF
:10185000032E0BD000BF5E48006884080AE05C4895
:10186000046807E05A480068440803E058480068E4
:10187000C40800BF00BF8320484908732009B0FB9B
:10188000F8F5280A08710D70032008730720087204
:10189000052000F077F80720404948600120BDE8A6
:1018A000F081012F3ED1484800694CF20F01884376
:1018B000454908610846006948F20A01084342495F
:1018C000086142480068C0F3012636B1012E08D0F5
:1018D000022E09D0032E0BD000BF3D4800688408BB
:1018E0000AE03B48046807E039480068440803E020
:1018F00037480068C40800BF00BF83202C49087324
:101900002009B0FBF8F5280A08710D700320087350
:1019100007200872062000F035F8072024494860A7
:101920000120BCE70020BAE770B506460C46154614
:10193000012E15D100F065F80DE000BF20480078B9
:1019400010F0010FFAD020781949087000201C49C6
:101950000870641C6D1E002DEFD100F03BF810E004
:101960000DE000BF1148007810F0010FFAD0207888
:101970000A49087000200D490870641C6D1E002D76
:10198000EFD170BD00F01F020121914042094FF0DC
:10199000E02303EB8202C2F80011704700C0004050
:1019A000A8000010B8000010A00000109C0000105B
:1019B00000000140AC000010B8020010A4000010AC
:1019C0009D000010B400001000C00240A8C10F40EC
:1019D0000000001010B500BF874800780028FBD039
:1019E0004920FFF76DFB4820FFF76AFB10BD10B5DB
:1019F0004920FFF7BBFB4820FFF7B8FBFFF7EAFFE2
:101A000010BD10B54820FFF713FB4920FFF710FB6E
:101A100010BD4FF6FF707949088000207849088092
:101A200031E0784876490988405C74490988484023
:101A3000724908800020744908801BE06F480078D4
:101A400010F0010F0CD06D48008840106B490880E1
:101A5000084600884AF2010148406849088004E0CD
:101A60006648008840106549088067480088401C27
:101A700065490880644800880828DFDB60480088E2
:101A8000401C5F49088061480068801E5C490988E5
:101A90008842C6D8704700B55C480068A8B1FFF717
:101AA000B8FF5A480068401E5649085C53490988E7
:101AB000A1EB002155480068801E524A105C081AAC
:101AC00001D1012000BD0020FCE70020FAE700B5AD
:101AD0004E480068801C4D490860FFF79AFF474850
:101AE00001784A480068801E464A115443480088DD
:101AF000011246480068401E115400BD10B5FFF7A2
:101B0000CAFF002857D041480068042815D13D4835
:101B10004078422811D102203C4908606F220868B1
:101B2000411C3A4B196037490A546B221946086820
:101B3000411C196033490A541EE0344800680428E7
:101B40001AD130484078642816D102202F49086005
:101B50002F490988C1F307222C490868411C2B4BE7
:101B6000196028490A542A490988CAB219460868DE
:101B7000411C196023490A542248007825490978F4
:101B8000884212D140F2D660FFF7A0FB062000F099
:101B900027F8FFF79CFF1D4802681A490120FFF74C
:101BA000C3FE00201949086005E0062000F018F87F
:101BB00000201649086010BD70B504460020134986
:101BC00008604FF400710F4800F09DF82046FEF7C2
:101BD00071FB05462A4621460120FFF7A5FE70BD90
:101BE00000F01F020121914042094FF0E02303EB76
:101BF0008202C2F8001170479D000010B60000106C
:101C0000B0000010B8020010B2000010A4000010D4
:101C100088000010B400001053EA020C00F0698044
:101C20002DE9F04B4FF00006002B1FBFB3FA83F5F0
:101C300003FA05F424FA05F65E4012BF1643B2FA21
:101C400082F502FA05F4C5F120051EBF22FA05FC53
:101C500044EA0C04203556EA044C4FEA144418BFF9
:101C6000641C4FF000084FF00009904271EB030C28
:101C700039D3002919BFB1FA81F701FA07F6B0FA92
:101C800080F700FA07F6C7F120071EBF20FA07FC0D
:101C900046EA0C062037B6FBF4FCA7EB0507103F1D
:101CA00007F01F0BCBF120060CFA0BFB2CFA06F603
:101CB00044BFB3460026202FA4BF5E464FF0000B62
:101CC0005BEA060C08BF4FF0010B19EB0B09ABFBED
:101CD000027C48EB0608C01B06FB02CC0BFB03CCC6
:101CE00071EB0C01C1E70B46024641464846BDE890
:101CF000F08B13B54FF000004FF00001AFF3008000
:101D0000BDE81C4070474FF000020429C0F012806B
:101D100010F0030C00F01B80CCF1040CBCF1020F9E
:101D200018BF00F8012BA8BF20F8022BA1EB0C0173
:101D300000F00DB85FEAC17C24BF00F8012B00F869
:101D4000012B48BF00F8012B70474FF0000200B58F
:101D5000134694469646203922BFA0E80C50A0E8CE
:101D60000C50B1F12001BFF4F7AF090728BFA0E87C
:101D70000C5048BF0CC05DF804EB890028BF40F848
:101D8000042B08BF704748BF20F8022B11F0804F8A
:101D900018BF00F8012B7047754600F029F8AE46D1
:101DA00005006946534620F00700854618B020B567
:101DB000FEF7E8F9BDE820404FF000064FF00007BD
:101DC0004FF000084FF0000B21F00701AC46ACE8E3
:101DD000C009ACE8C009ACE8C009ACE8C0098D4650
:101DE00070470446AFF300802046FEF7B6F90000C6
:101DF00000487047B804001001491820ABBEFEE748
:101E00002600020010B591EA030F48BF83F000439B
:101E100000F14483841A71EB030C05D2121943EBD1
:101E20000C03001B61EB0C01DFF824E14FEA1154B5
:101E3000A4EB135C1EEA430F18BF9EEA445F73D005
:101E400023EA0E03DCF1200E21EA045143F480134F
:101E500032D322FA0CFE10EB0E0023FA0CFE41EBFB
:101E60000E01CCF1200E03FA0EFE10EB0E0051F124
:101E70000001B1F5801FCCF1200E32D201EB0451EC
:101E800012FA0EF2BDE8104058BF7047401C38BF30
:101E90005FEA420218BF7047002814BF20F001001B
:101EA00041F100014FEA410313F5001F38BF7047AD
:101EB000A1F1C04100F0E4BA012A43EB0302ACF106
:101EC000200CDCF11F0E32BF4FF0000E23FA0CF392
:101ED00010EB030041EB0451B4EB115FD0D0A1EB48
:101EE000045101F5801149085FEA300001EB04510B
:101EF0000ED350F1000038BF12FA0EFE08D1BDE833
:101F00001040C9E7401C38BF5FEA4202CAD1C3E7AC
:101F1000BDE810404FEA410313F5001F38BF70477A
:101F2000A1F1C04100F0ACBA9EEA445F08D011EACA
:101F30005E0FBDE8104004BF01F000410020704773
:101F4000BDE8104070B500F04DFA00BF64FBBE3E26
:101F50000000E0FF2DE9C04130B4DFF8A0C23CEA48
:101F6000111418BF3CEA131400F0EC8081EA030559
:101F70001CEA111444EAD57418BF1CEA131500F0CA
:101F8000C780A4EB05044FF0004545EAC12145EAAE
:101F9000C32341EA505143EA525304F17F749942FA
:101FA00004F500344FEAC0204FEAC22208BF904235
:101FB00000F09C804FEA13650FF24016765D4FEA01
:101FC000134506FB05F7C7F1807706FB07F74FEAD5
:101FD000D737A7FB03687642C8F58038A7FB06CE43
:101FE00038BFA8F1010807FB08E64FF0000EA6FB7A
:101FF000028CE6FB03CEDCF1000CCEF1004E38BFC4
:10200000AEF1010EA6FB0C584FF000074FF0000593
:10201000E6FB0E87A1FB08C6A0FB07CE16EB0E065B
:1020200045F10005E1FB076515F1E04E7EBFA4F523
:1020300080345FEA46066D4116F1800745F10005E0
:102040004FEA17274FEA066647EA0567A6F1DE461C
:10205000B6F1805F4FEA15251FD9384624F0010CF0
:1020600005EBC471BCF1FE6F01EB0C1102D8F0BCA2
:10207000BDE8008124425CBF01F5801E9EEAC47F5A
:1020800002D4F0BCBDE80081244238D4F0BCA1F1F8
:10209000C041BDE8004100F0F3B94FEAD22242EA64
:1020A00043524FEAD323A7FB02864FEAD02040EAEF
:1020B000415007FB03661EEA0E0F4FEAD12105FBD4
:1020C000026658BFA6EB0056B6EB00564FEA520E1A
:1020D0004EEAC37E18EB0E0E56EB530EBDD518EB31
:1020E00002085E417F1C55F10005B6E74FF48015EC
:1020F0004FF000074FF000064FF00008ADE7F0BCCE
:102100004FF0000001F1C04101F00041BDE8008145
:1021100011EA0C1F0CEA131500D00CE013EA0C1F97
:1021200000F025804FF00000F0BC81EA030101F0CF
:102130000041BDE80081F0BCBDE8004181EA030137
:1021400000F09EB9F0BCBDE8004170B500F04AF95E
:10215000097EFC3E00F007B881EA03014FF0000061
:1021600001F00041704781EA030100F089B9F0BC39
:10217000BDE800414FF0000021497047FFFDFBF929
:10218000F7F5F4F2F0EEEDEBE9E8E6E4E3E1E0DEAA
:10219000DDDBDAD8D7D5D4D3D1D0CFCDCCCBCAC81C
:1021A000C7C6C5C4C2C1C0BFBEBDBCBBBAB9B8B743
:1021B000B6B5B4B3B2B1B0AFAEADACABAAA9A8A836
:1021C000A7A6A5A4A3A3A2A1A09F9F9E9D9C9C9B04
:1021D0009A999998979796959594939392919190AF
:1021E0008F8F8E8E8D8C8C8B8B8A89898888878740
:1021F0008685858484838382828181800000FF07B5
:102200000000F87F4FEA41034FEA5353A3F5806380
:10221000D3F11E03C8BFD3F1210C0CDD4FF00042F7
:1022200042EAC12242EA505232FA03FC8CEAE17CD3
:10223000ACEBE1707047102BC4BF0020704703F572
:10224000787CBCF1FF3F04D06FF0004282EA2100AD
:10225000704770B500F0C6F849922480002070479E
:10226000F2E710F0004248BF4042B0FA80F310FAA3
:1022700003F10AD0C3F11D0303F580634FEA415017
:1022800002EB035202EBD12170474FF00000704780
:10229000DFF848C170B51CEA111E1EBF1CEA1315F9
:1022A0009EEA0C0F95EA0C0F00F06F8081EA0304A0
:1022B00023EA4C134EEAD47E21EA4C1141F48011FA
:1022C00043F48013AE44A1FB024CA0FB0365AEF1C6
:1022D0007F7E361955EB0C05A1FB034C4CF1000336
:1022E000A0FB021C16EB0C06654153F100030942EA
:1022F00018BF46F0010613F4007F0BD14FEA0331FB
:102300004FEA0530340341EA155140EA16506FF0A8
:1023100003020AE04FEAC3214FEAC520F40241EA72
:10232000555140EA56506FF0020202EB2E4201EB8B
:10233000025585EACE710AD05FEA440C18BF24F03A
:10234000004450F1000041F1000120EAD47040F255
:10235000FE7C624500D270BDA84214BF4FF080449D
:102360004FF04044002E08BF0024BEF1806FA8BF8C
:10237000A1F1C041BDE8704080F282804FF00000C2
:1023800001F1C04101F0004170479EEA0C0F0CEAD8
:10239000131518BF95EA0C0F06D04FF0000081EA24
:1023A000030E0EF0004170BD00F01CF88900013EE4
:1023B00000F007B800F009B84FEA430C5FEA5C5C34
:1023C00008D081EA030100F05BB84FEA410C5FEAF4
:1023D0005C5CF6D14FF00000014970470000FF0738
:1023E0000000F87F0EF1020E2EF0030E5EF8046B73
:1023F000364205D4012A43EB030515F5001F12D818
:10240000012841EB010C1CF5001F0CD80ED14FEA3E
:10241000D17C15F5001F0CEB4C0C0CF1020C08BF25
:102420004CEBD37C04E04FF0080C01E04FEAD37C86
:102430000CEB4C0526FA05F606F00706B6F1040C7F
:1024400006D20EEB860CBDE870404CF0010C6047E4
:10245000DFE80CF0090B02024FF000414FF00000E2
:10246000A1F5002170BD19461046012851EB010469
:1024700018BFD4F5001484BF002001F0004170BDE6
:102480000808A0F500114FEA3101704710B591EA34
:10249000030F48BF83F000433FF5BCAC841A71EBD7
:1024A000030C07D212198CF0004C43EB0C03001BF9
:1024B00061EB0C01DFF8A4E14FEA1154A4EB135CCB
:1024C0001EEA430F18BF9EEA445F00F0B08023EA83
:1024D0006E03524221EA0451C3EB6E0338BF5B1E08
:1024E000DCF1200E25D322FA0CFE10EB0E0043FA8D
:1024F0000CFE41EB0E01CCF1200E03FA0EFE10EBA8
:102500000E0051F10001CCF1200E29D412FA0EF286
:1025100001EB0451BDE8104058BF7047401C1CBF80
:10252000B2F1004F704700280CBF491C20F0010099
:10253000704712EB020E43EB030218BF4FF0010E7F
:102540004EEA4202ACF1200CDCF11E0E54D943FAE3
:102550000CFE10EB0E0051F1FF31CCF11E0ED5D563
:102560000EF1010E12FA0EFE404141EB010101EBAA
:10257000445C5FEA5C5C10D910EBDE7001EB045147
:1025800038BFBEF1004FBDE8104018BF70470028AB
:102590000CBF491C20F00100704730D24FEAD42C08
:1025A00011F5001124F400641BD0B1FA81F20B3A4A
:1025B000A41AA41ED2F12003914030FA03F3194368
:1025C000904001EBCC71002C01EB0451BDE81040B0
:1025D000A8BF704701F1C0414FF0000001F0004179
:1025E0007047B0FA80F310FA03F100D110BDE41A7D
:1025F000173C4805C90AE4E701EB045110BD491036
:1026000001EB0451BDE810404FEA300002E04FF00A
:10261000000170474A0008BF0042F8D0B2F5001F21
:1026200028BF704701F000414FF0000070479EEA5C
:10263000445F07D011EA5E0FBDE8104004BF0021DF
:1026400000207047BDE8104070B5FFF7CBFE00BF1B
:1026500040DFF63E83F00041104670470000E0FF87
:1026600080C094D400C0092020C0092040C00920A7
:1026700060C0092080C00920E0C4000092B80000BA
:10268000A89300000C7B00008A6600003C5A000002
:1026900008520000D4490000BA450000A0410000E3
:1026A000863D0000C1390000493600001B330000A0
:1026B00035300000912D00002D2B00000429000072
:1026C000122700004F250000AF2300002A2200003F
:1026D000BE2000006B1F00002F1E00000B1D00001D
:1026E000FD1B0000051B0000231A00005519000007
:1026F0009C180000F617000062170000DD160000AD
:1027000065160000F7150000911500003015000057
:10271000D31400007714000019140000B81300004F
:1027200055130000F01200008A120000261200006B
:10273000C4110000651100000B110000B61000006C
:102740006810000022100000E20F0000A90F000036
:10275000740F0000420F0000140F0000E60E00008E
:10276000B90E00008B0E00005B0E0000280E00006A
:10277000F30D0000BD0D0000850D00004D0D0000A3
:10278000160D0000E10C0000AD0C00007C0C0000F8
:102790004E0C0000240C0000FE0B0000DB0B0000C0
:1027A000BB0B00009D0B0000800B0000650B0000C0
:1027B0004A0B00002F0B0000130B0000F60A00006C
:1027C000D90A0000BB0A00009C0A00007C0A000035
:1027D0005C0A00003B0A00001A0A0000F909000028
:1027E000D8090000B709000096090000750900002B
:1027F000540900003409000014090000F508000025
:10280000D7080000BA0800009D08000082080000F8
:102810003D3C00003428000000000010B80000001B
:1028200008010000EC280000B8000010600600005D
:1028300024010000AA9A5B060020202020202020EE
:102840002020202020202020202020202020202088
:102850002020202020202020202020202020202078
:102860002020202020202020202020202020202068
:102870002020202020202020202020202020202058
:102880002020202020202020200101000000000026
:102890000000000000000000000000000000000038
:1028A000905F0100905F0100000000000000000048
:1028B00000000000000000000000F03F0000F000F9
:1028C0000000000000000000000000000000000008
:1028D00001010000000000000000000000000000F6
:0C28E00000000000000000000B000000E1
:04000005000000CD2A
:00000001FF
